{
  "_format": "hh-sol-artifact-1",
  "contractName": "CollegePlatform",
  "sourceName": "src/backend/contracts/CollegePlatform.sol",
  "abi": [
    {
      "anonymous": false,
      "inputs": [
        {
          "indexed": false,
          "internalType": "uint256",
          "name": "recordId",
          "type": "uint256"
        },
        {
          "indexed": true,
          "internalType": "address",
          "name": "nft",
          "type": "address"
        },
        {
          "indexed": false,
          "internalType": "uint256",
          "name": "tokenId",
          "type": "uint256"
        },
        {
          "indexed": true,
          "internalType": "address",
          "name": "teacher",
          "type": "address"
        }
      ],
      "name": "RecordCreated",
      "type": "event"
    },
    {
      "anonymous": false,
      "inputs": [
        {
          "indexed": false,
          "internalType": "uint256",
          "name": "recordId",
          "type": "uint256"
        },
        {
          "indexed": true,
          "internalType": "address",
          "name": "nft",
          "type": "address"
        },
        {
          "indexed": false,
          "internalType": "uint256",
          "name": "tokenId",
          "type": "uint256"
        },
        {
          "indexed": true,
          "internalType": "address",
          "name": "student",
          "type": "address"
        }
      ],
      "name": "Sent",
      "type": "event"
    },
    {
      "inputs": [
        {
          "internalType": "uint256",
          "name": "",
          "type": "uint256"
        }
      ],
      "name": "checkTokenIdWithStudentAddress",
      "outputs": [
        {
          "internalType": "address",
          "name": "",
          "type": "address"
        }
      ],
      "stateMutability": "view",
      "type": "function"
    },
    {
      "inputs": [
        {
          "internalType": "contract IERC721",
          "name": "_nft",
          "type": "address"
        },
        {
          "internalType": "uint256",
          "name": "_tokenId",
          "type": "uint256"
        },
        {
          "internalType": "address",
          "name": "student",
          "type": "address"
        }
      ],
      "name": "makeRecord",
      "outputs": [],
      "stateMutability": "nonpayable",
      "type": "function"
    },
    {
      "inputs": [],
      "name": "recordCount",
      "outputs": [
        {
          "internalType": "uint256",
          "name": "",
          "type": "uint256"
        }
      ],
      "stateMutability": "view",
      "type": "function"
    },
    {
      "inputs": [
        {
          "internalType": "uint256",
          "name": "",
          "type": "uint256"
        }
      ],
      "name": "records",
      "outputs": [
        {
          "internalType": "uint256",
          "name": "recordId",
          "type": "uint256"
        },
        {
          "internalType": "contract IERC721",
          "name": "nft",
          "type": "address"
        },
        {
          "internalType": "uint256",
          "name": "tokenId",
          "type": "uint256"
        },
        {
          "internalType": "address",
          "name": "student",
          "type": "address"
        },
        {
          "internalType": "bool",
          "name": "sent",
          "type": "bool"
        }
      ],
      "stateMutability": "view",
      "type": "function"
    },
    {
      "inputs": [
        {
          "internalType": "uint256",
          "name": "_recordId",
          "type": "uint256"
        },
        {
          "internalType": "address",
          "name": "student",
          "type": "address"
        }
      ],
      "name": "transferRecord",
      "outputs": [],
      "stateMutability": "nonpayable",
      "type": "function"
    }
  ],
  "bytecode": "0x608060405234801561001057600080fd5b506001600081905550610d0e806100286000396000f3fe608060405234801561001057600080fd5b50600436106100575760003560e01c8063344610671461005c5780636558d7af146100905780637c1cf5cd146100ac578063900407bc146100c8578063d569a94e146100e6575b600080fd5b6100766004803603810190610071919061082c565b610116565b604051610087959493929190610a46565b60405180910390f35b6100aa60048036038101906100a59190610855565b610199565b005b6100c660048036038101906100c191906107dd565b610496565b005b6100d0610765565b6040516100dd9190610a2b565b60405180910390f35b61010060048036038101906100fb919061082c565b61076b565b60405161010d9190610959565b60405180910390f35b60026020528060005260406000206000915090508060000154908060010160009054906101000a900473ffffffffffffffffffffffffffffffffffffffff16908060020154908060030160009054906101000a900473ffffffffffffffffffffffffffffffffffffffff16908060030160149054906101000a900460ff16905085565b600260005414156101df576040517f08c379a00000000000000000000000000000000000000000000000000000000081526004016101d6906109eb565b60405180910390fd5b6002600081905550600060026000848152602001908152602001600020905060008311801561021057506001548311155b61024f576040517f08c379a0000000000000000000000000000000000000000000000000000000008152600401610246906109ab565b60405180910390fd5b8060030160149054906101000a900460ff16156102a1576040517f08c379a000000000000000000000000000000000000000000000000000000000815260040161029890610a0b565b60405180910390fd5b8173ffffffffffffffffffffffffffffffffffffffff16600360008360020154815260200190815260200160002060009054906101000a900473ffffffffffffffffffffffffffffffffffffffff1673ffffffffffffffffffffffffffffffffffffffff1614610346576040517f08c379a000000000000000000000000000000000000000000000000000000000815260040161033d906109cb565b60405180910390fd5b60018160030160146101000a81548160ff0219169083151502179055508060010160009054906101000a900473ffffffffffffffffffffffffffffffffffffffff1673ffffffffffffffffffffffffffffffffffffffff166323b872dd308484600201546040518463ffffffff1660e01b81526004016103c893929190610974565b600060405180830381600087803b1580156103e257600080fd5b505af11580156103f6573d6000803e3d6000fd5b505050508173ffffffffffffffffffffffffffffffffffffffff168160010160009054906101000a900473ffffffffffffffffffffffffffffffffffffffff1673ffffffffffffffffffffffffffffffffffffffff167fac6e8ab5aadceab19885a185d8d5d1d7f2b443434ef9d1c1721c57c51b6dd131858460020154604051610481929190610a99565b60405180910390a35060016000819055505050565b600260005414156104dc576040517f08c379a00000000000000000000000000000000000000000000000000000000081526004016104d3906109eb565b60405180910390fd5b6002600081905550600160008154809291906104f790610b51565b91905055508273ffffffffffffffffffffffffffffffffffffffff166323b872dd3330856040518463ffffffff1660e01b815260040161053993929190610974565b600060405180830381600087803b15801561055357600080fd5b505af1158015610567573d6000803e3d6000fd5b50505050806003600084815260200190815260200160002060006101000a81548173ffffffffffffffffffffffffffffffffffffffff021916908373ffffffffffffffffffffffffffffffffffffffff1602179055506040518060a0016040528060015481526020018473ffffffffffffffffffffffffffffffffffffffff1681526020018381526020018273ffffffffffffffffffffffffffffffffffffffff168152602001600015158152506002600060015481526020019081526020016000206000820151816000015560208201518160010160006101000a81548173ffffffffffffffffffffffffffffffffffffffff021916908373ffffffffffffffffffffffffffffffffffffffff1602179055506040820151816002015560608201518160030160006101000a81548173ffffffffffffffffffffffffffffffffffffffff021916908373ffffffffffffffffffffffffffffffffffffffff16021790555060808201518160030160146101000a81548160ff0219169083151502179055509050503373ffffffffffffffffffffffffffffffffffffffff168373ffffffffffffffffffffffffffffffffffffffff167fc94d26e976d5e43fbfbf5044749065fe942d4e764be8d5cd622d0c653d6b430560015485604051610750929190610a99565b60405180910390a36001600081905550505050565b60015481565b60036020528060005260406000206000915054906101000a900473ffffffffffffffffffffffffffffffffffffffff1681565b6000813590506107ad81610c93565b92915050565b6000813590506107c281610caa565b92915050565b6000813590506107d781610cc1565b92915050565b6000806000606084860312156107f257600080fd5b6000610800868287016107b3565b9350506020610811868287016107c8565b92505060406108228682870161079e565b9150509250925092565b60006020828403121561083e57600080fd5b600061084c848285016107c8565b91505092915050565b6000806040838503121561086857600080fd5b6000610876858286016107c8565b92505060206108878582860161079e565b9150509250929050565b61089a81610ad3565b82525050565b6108a981610ae5565b82525050565b6108b881610b2d565b82525050565b60006108cb601483610ac2565b91506108d682610bc9565b602082019050919050565b60006108ee602483610ac2565b91506108f982610bf2565b604082019050919050565b6000610911601f83610ac2565b915061091c82610c41565b602082019050919050565b6000610934601e83610ac2565b915061093f82610c6a565b602082019050919050565b61095381610b23565b82525050565b600060208201905061096e6000830184610891565b92915050565b60006060820190506109896000830186610891565b6109966020830185610891565b6109a3604083018461094a565b949350505050565b600060208201905081810360008301526109c4816108be565b9050919050565b600060208201905081810360008301526109e4816108e1565b9050919050565b60006020820190508181036000830152610a0481610904565b9050919050565b60006020820190508181036000830152610a2481610927565b9050919050565b6000602082019050610a40600083018461094a565b92915050565b600060a082019050610a5b600083018861094a565b610a6860208301876108af565b610a75604083018661094a565b610a826060830185610891565b610a8f60808301846108a0565b9695505050505050565b6000604082019050610aae600083018561094a565b610abb602083018461094a565b9392505050565b600082825260208201905092915050565b6000610ade82610b03565b9050919050565b60008115159050919050565b6000610afc82610ad3565b9050919050565b600073ffffffffffffffffffffffffffffffffffffffff82169050919050565b6000819050919050565b6000610b3882610b3f565b9050919050565b6000610b4a82610b03565b9050919050565b6000610b5c82610b23565b91507fffffffffffffffffffffffffffffffffffffffffffffffffffffffffffffffff821415610b8f57610b8e610b9a565b5b600182019050919050565b7f4e487b7100000000000000000000000000000000000000000000000000000000600052601160045260246000fd5b7f5265636f726420646f65736e2774206578697374000000000000000000000000600082015250565b7f4e6f7420746865207265636f7264206f6620706172746963756c61722073747560008201527f64656e7400000000000000000000000000000000000000000000000000000000602082015250565b7f5265656e7472616e637947756172643a207265656e7472616e742063616c6c00600082015250565b7f5265636f726420616c72656164792073656e7420746f2073747564656e740000600082015250565b610c9c81610ad3565b8114610ca757600080fd5b50565b610cb381610af1565b8114610cbe57600080fd5b50565b610cca81610b23565b8114610cd557600080fd5b5056fea2646970667358221220a6545d1fafb783b7720806f26f01dcd586d3d73085ecc2a665b36a5efbab131464736f6c63430008040033",
  "linkReferences": {},
  "deployedLinkReferences": {}
}